:100000006BC200009AC2000098C2000096C20000B5
:1000100094C2000092C2000090C200008EC2000094
:100020008CC200000C947D1D0C947D1D0C947D1DD4
:1000300084C2000082C2000080C200007EC20000B4
:100040007CC200007AC2000078C2000076C20000C4
:1000500074C2000072C2000070C200000C94FB1D4C
:100060006CC200000C94C1210C94F72166C2000000
:1000700064C2000062C2000060C200005EC20000F4
:100080005CC200005AC2000058C2000056C2000004
:1000900054C2000052C2000050C200004EC2000014
:1000A0004CC200004AC2000048C2000046C2000024
:1000B00044C2000042C2000040C200003EC2000034
:1000C0003CC200003AC2000038C2000036C2000044
:1000D00034C2000032C2000030C200002EC2000054
:1000E0002CC2000023052B0533053B0543054B05BA
:1000F00052055A0564056C057405860586057E055E
:10010000B806AF06B206B506CD06D006D306D606AB
:10011000BE06C106BB06D906D906C406C706CA066E
:1001200067076D07730779077F0785078B079107B7
:10013000AF07B607BD07C407CB07D207D907E0074B
:10014000E707EE07F507100881098A0993099C095A
:10015000A509AE09EA09EA09EA09EA09EA09EA0988
:10016000EA09EA09EA09B709FC13FF1302140514A6
:1001700008140B140E141114141417141A141D144B
:10018000291433143D14471451145B1464146E1471
:100190007D148714CF14CF14CF149114F4150416C2
:1001A000141624163416441654166416741684163F
:1001B00094165B1773178B17A317BB17D317F11779
:1001C0000918211841185F18621A2D1A321A361AA6
:1001D0003A1A3E1A421A461A4A1A4E1A521A561A0F
:1001E0005A1A5E1A451F481F371F3B1F411F7F1FAA
:1001F0004C1F501F561F5A1F5E1F641F681F6C1F25
:100200007F1F721F761F7A1F50494E00546F6D3446
:10021000204865616400546F6D3320486561640057
:10022000546F6D32204865616400546F6D31204811
:1002300065616400526964652045646765005269C0
:10024000646520426F77004372617368204564677C
:1002500065004578747261203200457874726120BF
:100260003100484820426F7700484843004B69639B
:100270006B00536E6172652052696D00536E61723E
:10028000652048656164004E4F4953452E2E004558
:100290004E440048495420484152440048495420A3
:1002A000534F465400574149542E2E2E0044697333
:1002B00061626C65640059537769746368004848EB
:1002C00073004848004848430053776974636800E6
:1002D0005069657A6F00464C540053474D004C4FAF
:1002E0004700455850004C494E004368616E6E65AA
:1002F0006C00436B4E6F7465004761696E00547902
:100300007065005854616C6B47005854616C6B0009
:100310004375727665460043757276650052657462
:10032000726967004D61736B54696D650053636159
:100330006E54696D650054687265736F6C64004E2D
:100340006F74650053656E736F72204E00484843AA
:100350002054323500484843205435300048484343
:1003600020543735004848432054313030004B6921
:1003700074005854616C6B0044656C617900546F73
:100380006F6C004D494449005374616E646279009A
:100390004F464600544F4F4C204D4F444520444952
:1003A0005341424C45440047656E6572616C004D97
:1003B0004F44450000000A0B02090C0D0E0807030C
:1003C0000401000000000000000000000000000028
:1003D000000000000000000000000000000000001D
:1003E00012111000000000000000000000000000DA
:1003F00000000000000000000000010210202008A2
:10040000081020401020408002010201080402016F
:1004100001020408102040808040201008040201DE
:100420008004020180402010080402010804020137
:1004300001020408102040800102040810204080BE
:1004400005050505070508080808020202020A0A50
:10045000080804040404010101010101010103036E
:10046000030303030303040707070C0C0C0C0C0C19
:100470000C0C0202020206060606060606060B0B16
:100480000B0B0B0B0B0B0000200023002600290098
:100490002C002F00320000010000030106010901B9
:1004A00000002200250028002B002E00310034001F
:1004B00002010000050108010B01000021002400D9
:1004C00027002A002D003000330001010000040144
:1004D00007010A01D80C292211241FBECFEFD1E257
:1004E000DEBFCDBF00E00CBF13E0A0E0B2E0E2E170
:1004F000FCE400E00BBF02C007900D92AA30B107E8
:10050000D9F725E0AAE0B3E001C01D92AB37B207EE
:10051000E1F714E0C8EDD4E000E006C0229701093D
:10052000FE010BBF0E94C025C43DD10780E0080733
:10053000A9F70E946D220C94072662CDCF93DF931A
:10054000EC0160E08D810E94B91F2F8141E06E8136
:100550008C810E94162061E08D81DF91CF910C94F7
:10056000B91FCF93DF93EC018F818E7F8F83CE01F4
:10057000E5DF81E090E00E94991E8F8181608F838A
:10058000CE01DCDF81E090E00E94991E8F818E7F9A
:100590008F83CE01D3DF84E690E0DF91CF910C947E
:1005A000991EFC018781613011F4806401C08F7B4A
:1005B00087830895FC018781613011F4806101C057
:1005C0008F7E87830895FC018781613011F48860F4
:1005D00001C0877F87830895FC018781613011F412
:1005E000846001C08B7F87830895FC01878161301F
:1005F00011F4826001C08D7F878308950F931F934C
:10060000CF93DF93EC01062F0F7010E06170D2DF03
:1006100015950795602F6170CE01D5DF159507956B
:10062000602F6170CE01D8DFB80175956795CE0156
:10063000DCDFCE01DF91CF911F910F9192CFFC01B2
:100640008781613011F4806801C08F7787830895B6
:100650001F93CF93DF93EC01162F642FF0DFCE01B1
:100660006DDF888584FD0FC0612F70E034E07595E3
:1006700067953A95E1F7CE01C1DF612FCE01DF9199
:10068000CF911F91BBCFDF91CF911F91089540E093
:10069000DFCF61E0FCDF80ED97E00C94991ECF93F3
:1006A000DF93CDB7DEB728970FB6F894DEBF0FBE45
:1006B000CDBF28E0E1E3F2E0DE01119601900D925A
:1006C0002A95E1F7FC012485241710F44FEF420F1F
:1006D000FE013196E40FF11DE40FF11D2081260F7C
:1006E0002068622F28960FB6F894DEBF0FBECDBFEC
:1006F000DF91CF91CCCFFC016185262F246021872B
:100700006C60C5CFCF93DF93EC01423018F0888541
:10071000886088874C871D86222329F0413019F490
:1007200088858460888780E593EC0E94991E8F817C
:100730008E778F83CE0102DF688564FD19C063E088
:10074000CE015CDF84E991E10E94991E63E0CE0155
:1007500055DF84E991E10E94991E63E0CE014EDFEE
:1007600086E990E00E94991E62E0CE0147DF13C047
:100770006062CE018CDF84E991E10E94991E688558
:100780006062CE0184DF86E990E00E94991E688550
:100790006062CE017CDF68856062CE0178DF84E034
:1007A0008987CE01A8DFCE0174DF82E08A8766E008
:1007B000CE01DF91CF916BCFCF93DF93EC01862FEA
:1007C0006C834D832E8361E00E94801F61E08D81E8
:1007D0000E94801F61E08E810E94801F188620E0A9
:1007E00041E060E1CE01DF91CF918CCFDC01139627
:1007F0001C921E921297EDE3F2E0ED93FC93DCCF96
:10080000FC0162856E7F6287646041CF41E020CF4A
:1008100008950C94F1250C94F925DC01ED91FC91DF
:100820000190F081E02D19944F925F926F927F9228
:100830008F929F92AF92BF92CF92DF92EF92FF92F0
:10084000CF93DF93EC01688570E080E090E00E9438
:10085000662420E030E040E05DE30E941C256B014F
:100860007C012985822F8F706F85788981110FC057
:10087000882777FD8095982F0E946824A70196010C
:100880000E941C2520E030E040E05EE370C0EB01F8
:1008900077FF02C0C158DF4FCC0FCD2FCC1FDD0B2F
:1008A000CB0160E870E00E947F252F7030E022309D
:1008B000310509F467C0FCF42130310509F098C016
:1008C000FE01EE0FFF1FEE0FFF1FE353FD4F808071
:1008D0009180A280B380BC01882777FD8095982FF6
:1008E0000E9468242B013C01CC0FDD1FCC0FDD1FC3
:1008F000CF52DD4F22C02330310509F45EC02430D1
:10090000310509F075C0FE01EE0FFF1FEE0FFF1F4E
:10091000EF59FD4F80809180A280B380BC01882771
:1009200077FD8095982F0E9468242B013C01CC0F05
:10093000DD1FCC0FDD1FCB59DD4FA5019401688170
:1009400079818A819B810E9464239B01AC01C30150
:10095000B2010E941C2520E030E040E05CE30E94F0
:100960001C25A50194010E946523A70196010E9400
:100970001C2520E030E040E05FE30E9465230E94F8
:1009800035243CC0FE01EE0FFF1FEE0FFF1FE755A1
:10099000FD4F80809180A280B380BC01882777FDC5
:1009A0008095982F0E9468242B013C01CC0FDD1FFD
:1009B000CC0FDD1FC355DD4FC0CFFE01EE0FFF1F73
:1009C000EE0FFF1FEB57FD4F80809180A280B38018
:1009D000BC01882777FD8095982F0E9468242B0101
:1009E0003C01CC0FDD1FCC0FDD1FC757DD4FA5CF5E
:1009F000BE0184E0660F771F8A95E1F71616170689
:100A00002CF46F37710524F4862F03C080E001C0F9
:100A10008FE7DF91CF91FF90EF90DF90CF90BF9065
:100A2000AF909F908F907F906F905F904F900895C0
:100A3000462F50E04E30510508F068C0FA01EE58DC
:100A4000FF4F0C94B42593E1899FF0011124EA5DD6
:100A5000FC4FE2815CC093E1899FF0011124EA5DC3
:100A6000FC4FE48154C093E1899FF0011124EA5DB9
:100A7000FC4FE5814CC093E1899FF0011124EA5DB0
:100A8000FC4FE68144C093E1899FF0011124EA5DA7
:100A9000FC4FE7813CC093E1899FF0011124E15DA7
:100AA000FC4F32C093E1899FF0011124EA5DFC4FB5
:100AB000E2852DC093E1899FF0011124E15DFC4F97
:100AC000E081E295EF7023C093E1899FF00111244A
:100AD000EA5DFC4FE0851BC093E1899FF001112482
:100AE000EA5DFC4FE38113C0A82FA770B0E0AF50C0
:100AF000BD4FE82FE87F8C91E80F09C093E1899FF3
:100B0000F0011124EA5DFC4FE081DCCFE0E08E2FA4
:100B10000895CF93DF93D82FC62F8ADF90E1D99F16
:100B2000900111242C593F4F682FC9018C0F911D42
:100B3000DF91CF9170CE823031F0833039F0811166
:100B400008C065E00AC060912E0205C060918C0467
:100B500002C060E002C067FD6FE790E05CCE282F26
:100B600030E0F901843018F4E65DFD4F0CC08830A8
:100B700018F4EE5DFD4F07C08A3018F4E45EFD4FB7
:100B800002C0E85EFD4F608167FD6FE7C901C29654
:100B900042CECF93C62F803298F4482F42954F70A3
:100BA000682F6F708AE093E07ADDC295CF706C2F6A
:100BB00070E04AE050E08AE093E0CF910C945C232F
:100BC000CF910895EF92FF920F931F93CF93DF93EE
:100BD00000D000D0CDB7DEB79C01283E83E03807B7
:100BE0000CF045E686E0E1E4F2E0DE0111960190CA
:100BF0000D928A95E1F769834D830AE010E0C901FF
:100C0000B8010E947F25805D8C83E4E6F0E0C90195
:100C1000BF010E947F25B8010E947F25605D6B8324
:100C2000C90168EE73E00E947F25BF010E947F2505
:100C3000605D6A838E010F5F1F4F7E01E6E0EE0E5E
:100C4000F11CF80161918F018AE093E00E94B722C4
:100C50000E151F05B1F726960FB6F894DEBF0FBE2E
:100C6000CDBFDF91CF911F910F91FF90EF9008952D
:100C7000662319F04EE36CE302C040E260E2A2CFCB
:100C80001F93CF93DF93D82FC92F162F662329F0F8
:100C90006CE38AE093E00E94B722ED2FFC2F649171
:100CA000EF012196662331F08AE093E00E94B7229B
:100CB000FE01F5CF112341F06EE38AE093E0DF916E
:100CC000CF911F910C94B722DF91CF911F9108957E
:100CD000CF93C82F41E060E08AE093E0E0DCC111EF
:100CE00010C060E085EA92E0CBDF809168049091CB
:100CF000690449E268E223E0959587952A95E1F732
:100D000021C0C13021F460E08CE992E005C0C2301E
:100D100039F460E083E992E0B3DF80915B040FC0B7
:100D2000C33029F460E08FE892E0CF91A9CFC430BE
:100D300059F460E087E892E0A3DF8091720449E211
:100D400068E290E0CF913ECFCF91089590E080315E
:100D5000910578F5FC01E058FF4F0C94B4258CE721
:100D600092E029C082E792E026C08DE692E023C09F
:100D700089E692E020C082E692E01DC08AE592E01A
:100D80001AC082E592E017C087E492E014C08EE3B7
:100D900092E011C084E392E00EC08AE292E00BC0C0
:100DA00080E292E008C086E192E005C08CE092E02B
:100DB00002C088E092E064CF8AE093E06ADC8AE0D7
:100DC00093E01EDD1092560440E060E08AE093E07C
:100DD00066DC90912403911108C061E080912503A5
:100DE000811160E08FEA93E028C0913041F461E026
:100DF00080912503811160E087EA93E01EC08EEFA9
:100E0000890F803368F460E0A1DF61E08091250301
:100E1000811160E08091240390E0029729DF0EC0E9
:100E2000923361F480912F02833021F481E080932A
:100E3000560404C060E084E993E022DF41E060E012
:100E40008AE093E02CDC3091240331112EC0809194
:100E50002F02813079F028F08230A9F08330E1F060
:100E6000E6C061E080912503813009F060E080E90F
:100E700093E0DCC061E080912503813009F060E0FF
:100E800088E893E0D3C061E080912503813009F0C8
:100E900060E083E893E0CAC061E08091250381307F
:100EA00009F060E08EE793E0C1C0313009F03FC047
:100EB0008091230390E08830910508F0B8C0FC01D0
:100EC000E057FF4F2091250361E00C94B4252130B9
:100ED00009F060E088E793E0A9C0213009F060E004
:100EE00082E793E0A3C0213009F060E08EE693E052
:100EF0009DC0213009F060E085E693E097C0213085
:100F000009F060E08DE593E091C0213009F060E0E8
:100F100085E593E08BC0213009F060E08DE493E03B
:100F200085C0213009F060E084E493E07FC08EEF5B
:100F3000830F803308F07BC080912F02833009F447
:100F400049C28091220390E08C30910508F06FC077
:100F5000FC01E856FF4F209125030C94B42561E075
:100F6000213009F060E08FE393E060C061E0213060
:100F700009F060E086E393E059C061E0213009F0B8
:100F800060E08DE293E052C061E0213009F060E062
:100F900084E293E04BC061E0213009F060E08DE134
:100FA00093E044C061E0213009F060E087E193E024
:100FB0003DC061E0213009F060E080E193E036C09F
:100FC00061E0213009F060E08AE093E02FC061E049
:100FD000213009F060E083E093E028C061E0213037
:100FE00009F060E08EEF92E021C0832F90E002973D
:100FF00033E1389FF001399FF00D1124EA5DFC4F79
:1010000080818F7061E031F4213009F060E089EF78
:1010100092E00CC0213009F060E082EF92E006C05F
:1010200061E0213009F060E08AEE92E029DE41E0E3
:101030006BE08AE093E033DB80912403813009F098
:1010400050C080912303811109C061E08091250384
:10105000823009F060E08AE090E0BBC1813049F461
:1010600061E080912503823009F060E080918C047A
:101070009AC1833049F461E080912503823009F000
:1010800060E0809126028FC1843049F461E0809154
:101090002503823009F060E08091270284C1853009
:1010A00049F461E080912503823009F060E080918D
:1010B000280279C1863049F461E0809125038230AD
:1010C00009F060E0809129026EC1873009F082C189
:1010D00061E080912503823009F060E080912E026A
:1010E00062C19EEF980F903308F074C19091220373
:1010F000911112C061E090912503923009F060E0F7
:1011000090E0029723E1289FF001299FF00D112420
:10111000EA5DFC4F828147C1913091F461E090918A
:101120002503923009F060E090E0029723E1289FC8
:10113000F001299FF00D1124EA5DFC4F848133C139
:10114000923091F461E090912503923009F060E0D3
:1011500090E0029723E1289FF001299FF00D1124D0
:10116000EA5DFC4F85811FC1933091F461E090915D
:101170002503923009F060E090E0029723E1289F78
:10118000F001299FF00D1124EA5DFC4F86810BC10F
:10119000943091F461E090912503923009F060E081
:1011A00090E0029723E1289FF001299FF00D112480
:1011B000EA5DFC4F8781F7C0953009F049C090E0A7
:1011C000029723E1289FF001299FF00D1124E15D92
:1011D000FC4F80818F7090E0209125038230910533
:1011E000E1F034F4009759F08130910579F02AC08C
:1011F00083309105C9F084309105E9F023C061E0A6
:10120000223009F060E086EE92E0B9C061E0223061
:1012100009F060E082EE92E0B2C061E0223009F0B5
:1012200060E08EED92E0ABC061E0223009F060E05A
:101230008AED92E0A4C061E0223009F060E086ED22
:1012400092E09DC061E0223009F4C3C060E0C1C0FB
:10125000963091F461E090912503923009F060E0BE
:1012600090E0029723E1289FF001299FF00D1124BF
:10127000EA5DFC4F808597C0973091F461E09091D2
:101280002503923009F060E090E0029723E1289F67
:10129000F001299FF00D1124EA5DFC4F828583C087
:1012A0009830A1F461E090912503923009F060E05C
:1012B00090E0029723E1289FF001299FF00D11246F
:1012C000E15DFC4F808182958F706DC0993009F08F
:1012D00057C041E066E08AE093E0E1D980912403C1
:1012E00090E0029723E1289FF001299FF00D11243F
:1012F000EA5DFC4FE081EF70F0E0EC55FF4F0C949D
:10130000B42561E080912503823009F060E080ED32
:1013100092E035C061E080912503823009F060E001
:1013200089EC92E02CC061E080912503823009F0C5
:1013300060E085EC92E023C061E08091250382307B
:1013400009F060E082EC92E01AC061E08091250330
:10135000823009F060E08EEB92E011C061E0809194
:101360002503823009F060E086EB92E008C061E07E
:1013700080912503823009F060E08DEA92E080CC14
:101380009A3099F461E090912503923009F060E081
:1013900090E0029723E1289FF001299FF00D11248E
:1013A000EA5DFC4F838190E014C09B3099F490E09B
:1013B000029761E020912503223009F060E0FC01F2
:1013C000E770FF27EF50FD4F2081887F9927820F1C
:1013D000911D4ECC08958F929F92AF92BF92CF9263
:1013E000DF92EF92FF920F931F93CF93DF93EC0165
:1013F000062F8091730481113FC00E94451E6093A7
:101400006E0470936F048093700490937104C09382
:10141000720481E08093730483E1089FF00111243A
:10142000DF01AA5DBC4F80E413968C93139780E292
:1014300018968C93E15DFC4F8081807F80831092B1
:10144000600410926104109262041092630410927E
:101450005C0410925D0410925E0410925F0410927E
:101460005B0410925A041092590480E094E0909327
:101470000902809308027DC28130C9F5809172040F
:1014800090E08C179D079CF4BE01882777FD80951E
:10149000982F0E9468242AE939E949E95FE30E940C
:1014A0001C250E943A246093720484E011DCC090F1
:1014B0006E04D0906F04E0907004F0907104E0E24C
:1014C000CE0EEEE4DE1EE11CF11C0E94451EC61687
:1014D000D706E806F90608F05EC282E0809373043E
:1014E00080915B04893108F090C081E047C282306E
:1014F00009F48DC0833009F0FEC08091720490E041
:101500008C179D070CF4AFC00E94451E00916E041D
:1015100010916F042091700430917104601B710B65
:10152000820B930B693E73408105910508F433C229
:1015300084E080937304C0906004D0906104E090D4
:101540006204F09063048091640490916504A0911A
:101550006604B091670440916A0450916B046091F5
:101560006C0470916D040097A105B10509F4BFC02A
:10157000841B950BA60BB70B8C0D9D1DAE1DBF1DBF
:101580008093600490936104A0936204B093630419
:1015900080915C0490915D04A0915E04B0915F0421
:1015A000840F951FA61FB71F801B910BA20BB30BB7
:1015B00080935C0490935D04A0935E04B0935F04F9
:1015C00040915B044F5F40935B048091680490916D
:1015D00069042091590430915A042817390724F4DA
:1015E00090935A0480935904209108023091090283
:1015F0008217930724F490930902809308024931DB
:1016000008F473CF423308F0C6C182E0B7C18091BD
:10161000720490E08C179D070CF0BDC180E058DB90
:1016200080915704909158040196909358048093A8
:1016300057040E94451E60936E0470936F0480935C
:1016400070049093710460936A0470936B048093A8
:101650006C0490936D0483E080937304D0936904C9
:10166000C093680498C180915704909158040196E2
:1016700090935804809357046091680470916904B2
:101680006C177D07BCF4D0936904C09368040E9472
:10169000451E60936A0470936B0480936C0490936E
:1016A0006D04109264041092650410926604109206
:1016B00067042ACF882777FD8095982F0E94682499
:1016C00020E030E040E05FE30E941C250E943524CA
:1016D0006C177D070CF018CF0E94451E60936404C0
:1016E0007093650480936604909367040DCF80E047
:1016F00090E0DC0141CF843009F04DC180915B0462
:10170000893109F08FC010E0E0900802F0900902E2
:10171000B701882777FD8095982F0E9468249B0148
:10172000AC0160E070E080E891E40E94CD2320E00D
:1017300030E040E852E40E941C250E943A2483E1F4
:10174000809FF001819FF00D1124EA5DFC4F603114
:1017500010F0638302C080E1838383E1809FE00116
:10176000819FD00D1124CA5DDC4F80917204B701B6
:10177000681B7109882777FD8095982F0E9468243F
:101780004B015C01CB80D12CE12CF12CC701B601BF
:101790000E94662420E030E040E85CE30E941C25C3
:1017A0009B01AC01C501B4010E941C250E943A2492
:1017B0006C83C701B6010E9466249B01AC0160E006
:1017C00070E080E095E40E94CD2320E030E040E826
:1017D0005FE30E9464230E943A2468870E94451EAA
:1017E00060936E0470936F048093700490937104FF
:1017F0001092720481E0809373041092600410923E
:101800006104109262041092630410925C041092BE
:101810005D0410925E0410925F0410925A041092BC
:101820005904A7C0823309F085C0C62FD0E043E138
:10183000649F800111240A5D1C4F60915C047091CB
:101840005D0480915E0490915F040E94662420E014
:1018500030E048EC51E40E94CD230E943A24F80184
:10186000658360916004709161048091620490913D
:1018700063040E94662420E030E048EC51E40E94BA
:10188000CD234B015C010E943A24F80166836091EC
:10189000590470915A04882777FD8095982F0E94EB
:1018A00068246B017C0120E030E040E051E40E94BC
:1018B0001C25A50194010E94CD230E943A24F80121
:1018C00067831085A701960160E070E080E894E4EA
:1018D0000E94CD2320E030E040E052E40E941C252D
:1018E0006B017C01612F70E080E090E00E94682431
:1018F000A70196010E94182518162CF0C701B60101
:101900000E943A2401C0612F83E18C9FF0018D9FDA
:10191000F00D1124DF01AA5DBC4F18966C93E15DB8
:10192000FC4F8081807F808383E0D2D985E08093E3
:10193000730431C08091720490E08C179D075CF5B0
:101940000E94451E60936E0470936F048093700430
:101950009093710460936A0470936B0480936C0499
:1019600090936D0483E080937304D0936904C093D3
:101970006804109258041092570480E0DF91CF91D0
:101980001F910F91FF90EF90DF90CF90BF90AF909D
:101990009F908F909DC9DF91CF911F910F91FF90E4
:1019A000EF90DF90CF90BF90AF909F908F90089571
:1019B000CF93E6E2F3E080E090E064E1CAE05EE12C
:1019C0007EE62FEF3FEF40814F604083DC01AA5D50
:1019D000BC4F12961C92129713966C931397149601
:1019E0006C9314971596CC93159716965C9316974F
:1019F00017965C9317974185407F418718967C9393
:101A000018971A961C9241854F704187308B278713
:101A100043967396803341E09407A9F62AE049E0A3
:101A200068E08AE093E0CF910C94F6030F931F9344
:101A3000CF93DF93D82FC62F142F022F8F3619F490
:101A4000642F8C2FA6D860EF70E08EED94E00E949A
:101A50000D0467E770E08EED94E00E940D046D2F99
:101A60008EED94E00E94FD206C2F8EED94E00E949C
:101A7000FD20612F8EED94E00E94FD20602F8EED01
:101A800094E00E94FD2067EF70E08EED94E0DF911E
:101A9000CF911F910F910C940D04CF92DF92FF9282
:101AA0000F931F93CF93DF931F92CDB7DEB7F82E1E
:101AB000462F6F3709F05AC083E1F89E8001112448
:101AC000F801EA5DFC4F6F01228140E06F2D82E05A
:101AD000ADDFF601248141E06F2D82E0A7DFF60142
:101AE000258142E06F2D82E0A1DFF601268143E0EF
:101AF0006F2D82E09BDFF601278144E06F2D82E0AD
:101B000095DF015D1C4FF80120812F7045E06F2D9E
:101B100082E08CDFF601228546E06F2D82E086DFD1
:101B2000F801208122952F7047E06F2D82E07EDF43
:101B3000F601208548E06F2D82E078DFF6012381F1
:101B400049E06F2D82E072DFEF2DE770F0E0EF509B
:101B5000FD4F2F2D287F8081280F4AE06F2D82E0D6
:101B600065DFF60120812F704DE005C049830E949A
:101B70001805282F49816F2D82E00F90DF91CF91BA
:101B80001F910F91FF90DF90CF9050CF8F3709F0CA
:101B900046C020912A0240E06CE482E047DF2091B9
:101BA0002B0241E06CE482E041DF20912C0242E014
:101BB0006CE482E03BDF20912D0243E06CE482E0A4
:101BC00035DF2091260244E06CE482E02FDF209193
:101BD000270245E06CE482E029DF2091280246E0FC
:101BE0006CE482E023DF2091290247E06CE482E08C
:101BF0001DDF2091240248E06CE482E017DF209191
:101C0000250249E06CE482E011DF209122024AE0E3
:101C10006CE482E00BDF209123024BE016C0282FFA
:101C200030E0F901843018F4E65DFD4F0CC08830D7
:101C300018F4EE5DFD4F07C08A3018F4E45EFD4FE6
:101C400002C0E85EFD4F2081482F6CE482E0EECEBA
:101C50008230C1F020F481111BC025E01AC083300E
:101C6000A1F08F37A9F425E040E06EE782E0DEDEE8
:101C700020912E0242E06EE782E0D8DE20918C04B3
:101C800043E008C020912E0204C020918C0401C0C2
:101C900020E0482F6EE782E0C9CE1F93CF93DF93F9
:101CA0001F92CDB7DEB7162F682F8EED94E04983D3
:101CB0000E94FD20612F8EED94E00E94FD2049815D
:101CC000642F8EED94E00F90DF91CF911F910C94D3
:101CD000FD204F925F926F927F928F929F92AF9270
:101CE000BF92CF92DF92EF92FF920F931F93CF9309
:101CF000DF93EC01E62F742E80918D0490918E0479
:101D0000A0918F04B09190040B851C852D853E8594
:101D1000801B910BA20BB30B0E8110E020E030E092
:101D2000081719072A073B0708F0B2C0042F10E074
:101D30002F8538898C8190E0A901480F591F4017E1
:101D4000510734F0281B390B021713070CF0A0C001
:101D500080912F02823089F469EB70E08EED94E07F
:101D60000E940D046A818EED94E00E94FD20672D93
:101D70008EED94E00E94FD200BC0833049F48091E9
:101D80005604882329F020E0472D6E2F8FE64EDE83
:101D9000C0908D04D0908E04E0908F04F090900459
:101DA0006F857889882777FD8095982F0E94682411
:101DB0004B015C01672D70E080E090E00E9466249A
:101DC0009B01AC01C501B4010E9464234B015C017D
:101DD0006B857C858D859E850E9466242B013C0148
:101DE000C701B6010E9466249B01AC01C301B20188
:101DF0000E9464239B01AC01C501B4010E94CD2364
:101E000020E030E048EC52E40E941C254B015C01CC
:101E1000188B0F8720E030E0A9010E9418251816C2
:101E20009CF46091220270E080E090E00E946824BF
:101E30009B01AC01C501B4010E941825181624F4B9
:101E400088818F7080671FC020E030E0A901C50144
:101E5000B4010E94C92387FF17C0B7FAB094B7F83E
:101E6000B0946091230270E080E090E00E946824CA
:101E70009B01AC01C501B4010E941825181624F479
:101E800088818F7080688883CB86DC86ED86FE86AD
:101E9000DF91CF911F910F91FF90EF90DF90CF9046
:101EA000BF90AF909F908F907F906F905F904F907A
:101EB00008952F923F924F925F926F927F928F92EE
:101EC0009F92AF92BF92CF92DF92EF92FF920F93C9
:101ED0001F93CF93DF93EC01762E642E88818F7051
:101EE0008230C9F489810E94081F482F6981CE0180
:101EF000DF91CF911F910F91FF90EF90DF90CF90E6
:101F0000BF90AF909F908F907F906F905F904F9019
:101F10003F902F90DECE813009F065C089810E940C
:101F2000081F8C014881842F807F99F48C812AE0DE
:101F3000829FC0011124081719070CF097C1298945
:101F40003A89281739070CF091C14F7040614883D6
:101F500016C1803161F52C814AE0249F9001112443
:101F60008F859889021713074CF449895A894217BB
:101F7000530724F40196988B8F870DC02D8130E094
:101F80004881281739072CF4842F8F708065888347
:101F900002C04F7048838E8190E02F853889821768
:101FA00093070CF063C188818F7080665EC18032B8
:101FB00009F05CC18F8598891816190614F40197E9
:101FC0002EC08C815AE0859FC00111240817190783
:101FD0000CF44CC129893A89281739070CF446C1F9
:101FE0004F70488343C18530A1F5862F0E94081F9A
:101FF0008C012C8184E0289F900111248F85988981
:1020000048810217130774F4242F2F70206128834E
:102010002E8130E0281739070CF428C10196988BDF
:102020008F8724C18F3F910581F02D8130E02817E3
:1020300039075CF4288554E0259F9001112420176E
:1020400031071CF09E5F988B8F87842F8F7080657F
:102050000CC10E94451E60938D0470938E04809382
:102060008F04909390044881242F207F2032D9F44C
:102070000B851C852D853E856B017C01C01AD10A1C
:10208000E20AF30A0E8110E020E030E00C151D0595
:102090002E053F0540F4242F2F70206328836B8783
:1020A0007C878D879E87872D0E94081FBC0188270B
:1020B00077FD8095982F0E9468246B017C016B81CD
:1020C00070E080E090E00E9466249B01AC01C701B3
:1020D000B6010E941C2520E030E040E85CE30E944D
:1020E0001C2520E030E040E05FE30E9465230E9471
:1020F00035246B017C018B01E8818E2F807F80333A
:1021000009F043C080908D0490908E04A0908F04BD
:10211000B0909004AF81B0E011964B855C856D85E1
:102120007E8514012501241A350A460A570AA201A0
:1021300091010E94BA2554E0969587957795679509
:102140005A95D1F72F853889261B370B121613069F
:10215000CCF489899A89C81AD90A8C8190E08C15A7
:102160009D050CF083C0201731070CF07FC08E2F27
:102170008F70806188838B869C86AD86BE86188A28
:102180001F8674C08E2F8F7070C081111BC089890B
:102190009A89C81AD90A8C8190E08C159D050CF09B
:1021A00065C08E2F8F708061888380918D0490919F
:1021B0008E04A0918F04B09190048B879C87AD878B
:1021C000BE87DDCF803109F051C080918D049091A0
:1021D0008E04A0918F04B09190044B855C856D8531
:1021E0007E85841B950BA60BB70B4D8150E060E0FC
:1021F00070E084179507A607B707A0F58F85988923
:102200008C159D059CF5D88ACF86898582958F701F
:1022100090E0880F991FFC01E65EFD4F208131811F
:102220002F3F4FEF340719F02C153D052CF4FC011E
:10223000E65EFD4FD182C082862D90E0880F991F07
:10224000FC01E65FFD4F208131812F3F5FEF3507B5
:1022500019F02017310754F4FC01E65FFD4FD182DD
:10226000C08204C08E2F8F708064888380912F027B
:10227000833051F46091070288E0789E600C11244D
:10228000661102C0C801A7D81A8B098BDF91CF91C4
:102290001F910F91FF90EF90DF90CF90BF90AF9084
:1022A0009F908F907F906F905F904F903F902F9076
:1022B0000895EF92FF920F931F93CF93DF93EC015A
:1022C000162F7A018881982F9F70913031F5807F89
:1022D000803541F469E970E08EED94E00E940D04D0
:1022E0006A810AC0803609F009C169E970E08EEDA3
:1022F00094E00E940D046B818EED94E00E94FD201D
:102300006FE770E08EED94E00E940D0488818F707D
:10231000806288838F8190E06CC00E94451E60932C
:102320008D0470938E0480938F0490939004988111
:10233000892F8F70853009F05FC08F859889012FB4
:102340000770187F69E970E08130924064F48EED87
:1023500094E00E940D046A818EED94E00E94FD20BD
:102360006F85788914C08EED94E00E940D04A02F33
:10237000B0E0AF50BD4F8C91612F70E0680F711DC0
:102380008EED94E00E940D046F8578897250E3E031
:10239000660F771FEA95E1F76038710514F06FE773
:1023A00070E08EED94E00E940D04E02FF0E0EF501D
:1023B000FD4F8081612F70E0680F711D6F377105CF
:1023C000B1F08FEF9FEFF701908B878785810091A8
:1023D0008D0410918E0420918F0430919004081B7D
:1023E00011092109310903871487258736878FEF63
:1023F0009FEF988B8F8782C0907F903409F07EC0CA
:10240000811135C0CE010E941404182F69E970E0D3
:102410008EED94E00E940D046A818EED94E00E949E
:10242000FD20612F8EED94E00E94FD2088818F7049
:1024300080628883F7018081813509F05FC069E996
:1024400070E08EED94E00E940D04F70162818EED44
:1024500094E00E94FD206FE770E08EED94E00E9412
:102460000D04F70180818F708062808347C01A81DC
:10247000F70187859089248130E02817390714F403
:102480001B8123C02091290230E0281739071CF452
:1024900010912D021AC02091280230E02817390728
:1024A0001CF410912C0211C02091270230E0281753
:1024B00039071CF410912B0208C02091260230E04D
:1024C0002817390714F410912A0269E970E08EED9B
:1024D00094E00E940D04612F8EED94E00E94FD2097
:1024E000CE010E941404682F8EED94E0DF91CF910D
:1024F0001F910F91FF90EF900C94FD20DF91CF91F1
:102500001F910F91FF90EF900895FF920F931F93EB
:10251000CF93DF93EC01F62E8A019881892F8F707B
:102520008F3009F4CAC0823061F5907F903771F422
:1025300080912F02823009F095C069E970E08EED3C
:1025400094E00E940D046091240210C0903809F0BC
:10255000B4C080912F02823009F084C069E970E034
:102560008EED94E00E940D04609125028EED94E0C2
:102570000E94FD206FE770E08EED94E00E940D0454
:1025800071C0292F207C09F498C020912F0223309C
:1025900009F054C020915604222309F44FC0813021
:1025A00071F420E04F858FE641DA8881982F907F83
:1025B000903509F082C08F70806288833AC0853080
:1025C00019F420E04F8532C0907F903409F075C037
:1025D000811127C0CE010E94140420E0482F6F2DE6
:1025E0008FE624DA88818F7080628883F801808189
:1025F0008135F9F4EF2DE770F0E0EF50FD4F6F2DCE
:10260000687F8081680F20E04FE78FE60FDAF801DE
:1026100080818F70806280838FEF9FEF908B8787A0
:1026200008C0CE010E94140420E0482F6F2D8FE6D1
:10263000FDD98FEF9FEF988B8F873FC0EF2DE7700D
:10264000F0E0EE0FFF1FE65FFD4F208131812F3F4D
:10265000FFEF3F0759F08F859889880F991F8217E0
:10266000930724F488818F70888327C0E985E295D9
:10267000EF70F0E0EE0FFF1FE65EFD4F208131812D
:102680002F3F8FEF380781F04A8580E490E0841B6C
:102690009109880F991F880F991F4F855889840FBA
:1026A000951F82179307F4F2A8016F2DCE01DF91D9
:1026B000CF911F910F91FF90FCCDDF91CF911F9192
:1026C0000F91FF9008950F931F93CF93DF93EB012A
:1026D0008A01622F8430910509F42FC1ACF4813056
:1026E0009105B9F14CF4892B09F059C120E040E083
:1026F00060912F0280E04EC18230910509F448C0FC
:10270000039709F459C04BC18E36910509F432C1C3
:102710007CF48136910509F042C19C2F8827840FF3
:10272000951F0E940904282F402F6C2F81E632C18B
:102730008F36910509F427C18F37910509F02FC114
:102740008EED94E00E94DC2010922F020C94000089
:1027500026C18EED94E00E94DC20C130D10569F0E5
:102760002CF4CD2B79F410922F020CC0C230D1057D
:1027700031F0239739F483E003C081E001C082E0A7
:1027800080932F0220E040E060912F0281E002C19F
:10279000CE37D10519F4842F5BDA09C0CC34D105CA
:1027A00019F4842FF3D903C0642F8C2F76D92FE727
:1027B0004FE76FE782E0EEC0CF37D10509F4EFC0F5
:1027C000CE37D10569F44230510539F04330510517
:1027D00009F0E5C020938C04E2C020932E02DFC0F4
:1027E000CC34D10569F54C30510508F0D8C0FA0158
:1027F000EC54FF4F0C94B42520932A02D0C02093B0
:102800002B02CDC020932C02CAC020932D02C7C03A
:1028100020932602C4C020932702C1C0209328021F
:10282000BEC020932902BBC020932402B8C02093CD
:102830002502B5C020932202B2C020932302AFC06C
:102840004E30510508F0ABC0FA01E054FF4F0C9434
:10285000B42583E18C9FF0018D9FF00D1124EA5D7A
:10286000FC4F22839CC083E18C9FF0018D9FF00D73
:102870001124EA5DFC4F248392C083E18C9FF00118
:102880008D9FF00D1124EA5DFC4F258388C083E104
:102890008C9FF0018D9FF00D1124EA5DFC4F268383
:1028A0007EC083E18C9FF0018D9FF00D1124EA5DC5
:1028B000FC4F278374C083E18C9FF0018D9FF00D46
:1028C0001124E15DFC4F35C083E18C9FF0018D9FA9
:1028D000F00D1124EA5DFC4F228761C083E18C9FDB
:1028E000F0018D9FF00D1124E15DFC4F6295607F3A
:1028F00080818F70862B808352C083E18C9FF00192
:102900008D9FF00D1124EA5DFC4F208748C083E1C4
:102910008C9FF0018D9FF00D1124EA5DFC4F238305
:102920003EC083E18C9FF0018D9FF00D1124EA5D84
:10293000FC4F6F708081807FDDCFCF37D10579F17B
:10294000CE37D10531F4842FDF91CF911F910F91B4
:102950006FC0CC34D10531F4842FDF91CF911F911A
:102960000F917BC0422F602F8C2FDF91CF911F9151
:102970000F913BC0C0930702409306021092580487
:10298000109257040CC081E0219709F080E08093F9
:10299000560405C0DF91CF911F910F9147C8DF9179
:1029A000CF911F910F9108950F931F93CF93DF93B2
:1029B000C82FD0E0062F10E0CE0124E0880F991F29
:1029C0002A95E1F78C599F4F800F911F0E940904AF
:1029D00087FD8FE7282F30E0A801BE0183E090E05B
:1029E000DF91CF911F910F916ECEFF920F931F93A6
:1029F000CF93DF93F42EC62FD0E0242F30E0082FA2
:102A000010E0AE01B80183E090E05DDEC80134E083
:102A1000880F991F3A95E1F78C599F4F6F2D8C0FB6
:102A20009D1FDF91CF911F910F91FF900C940B048C
:102A30001F93CF93DF93162FC82FD0E0262F30E0BF
:102A4000AE016EE770E083E090E03DDE612FCE01E5
:102A5000DF91CF911F910C940B041F93CF93DF93C1
:102A6000162FC82FD0E0262F30E0AE016CE470E0C6
:102A700083E090E028DE612FCE01C296DF91CF91F6
:102A80001F910C940B0480912503811110C080913B
:102A9000240390E0019663E370E00E947F25809319
:102AA00024038250809307021092730408958130AA
:102AB00069F580912403811109C080912F0290E073
:102AC00001968370992780932F020895813049F4ED
:102AD0008091230390E001968770992780932303C8
:102AE00008959EEF980F903358F48091220390E060
:102AF00001966CE070E00E947F2580932203089588
:102B0000823309F025C1109224030895823009F020
:102B10001FC120912403213009F051C0809123036B
:102B2000813049F480918C0490E001968770992758
:102B300080938C040895833059F46091260270E0EC
:102B40006F5F7F4F6F7777276093260284E00CC01A
:102B5000843059F46091270270E06F5F7F4F6F7788
:102B600077276093270285E078CF853059F460910C
:102B7000280270E06F5F7F4F6F777727609328029E
:102B800086E0F2CF863059F46091290270E06F5FE1
:102B90007F4F6F7777276093290287E0E5CF8730F3
:102BA00009F0D6C080912E0290E0019666E070E0B8
:102BB0000E947F2580932E0282E00C949B058EEF6D
:102BC000820F803308F0C1C04091220350E04B30A7
:102BD000510508F0BDC0FA01E253FF4F30E022502A
:102BE000310993E10C94B425929FF001939FF00D6D
:102BF0001124EA5DFC4F228130E02F5F3F4F2F7799
:102C00003327228360E09FC0929FF001939FF00DD5
:102C10001124EA5DFC4F248130E02F5F3F4F2F7776
:102C20003327248361E08FC0929FF001939FF00DC2
:102C30001124EA5DFC4F258130E02F5F3F4F2F7755
:102C40003327258362E07FC0929FF001939FF00DB0
:102C50001124EA5DFC4F268130E02F5F3F4F2F7734
:102C60003327268363E06FC0929FF001939FF00D9E
:102C70001124EA5DFC4F278130E02F5F3F4F2F7713
:102C80003327278364E05FC0929FF001939FF00D8C
:102C90001124E15DFC4F908121E0290F2F70907F7E
:102CA000922B908365E04FC0929FF001939FF00DAF
:102CB0001124EA5DFC4F208530E02F5F3F4F2F77D6
:102CC0003327208768E03FC0929FF001939FF00D6B
:102CD0001124EA5DFC4F228530E02F5F3F4F2F77B4
:102CE0003327228766E02FC0929FF001939FF00D5B
:102CF0001124E15DFC4F9081292F207F205F9F7080
:102D0000922B908367E01FC0929FF001939FF00D7C
:102D10001124EA5DFC4F908121E0290F2F70907FF4
:102D2000922B90836DE00FC0929FF001939FF00D66
:102D30001124EA5DFC4F238130E02F5F3F4F2F7756
:102D40003327238369E00C948905223309F4DBCE11
:102D500008958091250381110FC080912403882359
:102D600011F0815001C082E380932403825080934C
:102D70000702109273040895813079F5809124033D
:102D800081110AC080912F02882311F0815001C067
:102D900083E080932F020895813051F480912303C2
:102DA000882311F0815001C087E0809323030895A8
:102DB0009EEF980F903350F480912203882311F0F6
:102DC000815001C08BE0809322030895823309F083
:102DD00092C181E3809324030895823009F08BC16E
:102DE00020912403213009F051C0809123038130C8
:102DF00051F480918C04882311F0815001C087E048
:102E000080938C040895833059F4609126026623E0
:102E100011F0615001C06FE76093260284E00CC09E
:102E2000843059F460912702662311F0615001C08B
:102E30006FE76093270285E010CE853059F46091EA
:102E40002802662311F0615001C06FE760932802E9
:102E500086E0F2CF863059F460912902662311F0A2
:102E6000615001C06FE76093290287E0E5CF8730AA
:102E700009F041C180912E02882311F0815001C0D8
:102E800086E080932E0282E00C949B058EEF820FE9
:102E9000803308F02DC14091220350E04B305105A2
:102EA00008F029C1FA01E752FF4F30E02250310902
:102EB00093E10C94B425929FF001939FF00D11249F
:102EC000EA5DFC4F9281992311F0915001C09FE778
:102ED00043E1429FF001439FF00D1124EA5DFC4F56
:102EE000928360E003C1929FF001939FF00D112443
:102EF000EA5DFC4F9481992311F0915001C09FE746
:102F000043E1429FF001439FF00D1124EA5DFC4F25
:102F1000948361E0EBC0929FF001939FF00D112428
:102F2000EA5DFC4F9581992311F0915001C09FE714
:102F300043E1429FF001439FF00D1124EA5DFC4FF5
:102F4000958362E0D3C0929FF001939FF00D11240E
:102F5000EA5DFC4F9681992311F0915001C09FE7E3
:102F600043E1429FF001439FF00D1124EA5DFC4FC5
:102F7000968363E0BBC0929FF001939FF00D1124F4
:102F8000EA5DFC4F9781992311F0915001C09FE7B2
:102F900043E1429FF001439FF00D1124EA5DFC4F95
:102FA000978364E0A3C0929FF001939FF00D1124DA
:102FB000E15DFC4F90819F7019F091509F7001C0AE
:102FC0009FE043E1429FF001439FF00D1124E15D3A
:102FD000FC4F292F2F709081907F922B908365E07A
:102FE00085C0929FF001939FF00D1124EA5DFC4F84
:102FF0009085992311F0915001C09FE743E1429FD2
:10300000F001439FF00D1124EA5DFC4F908768E0CA
:103010006DC0929FF001939FF00D1124EA5DFC4F6B
:103020009285992311F0915001C09FE743E1429F9F
:10303000F001439FF00D1124EA5DFC4F928766E09A
:1030400055C0929FF001939FF00D1124E15DFC4F5C
:10305000908192959F7019F091509F7001C09FE0F0
:1030600043E1429FF001439FF00D1124E15DFC4FCD
:10307000292F2295207F90819F70922B908367E06B
:1030800035C0929FF001939FF00D1124EA5DFC4F33
:1030900090819F7019F091509F7001C09FE043E1B3
:1030A000429FF001439FF00D1124EA5DFC4F292F50
:1030B0002F709081907F922B90836DE017C0929F2C
:1030C000F001939FF00D1124EA5DFC4F9381992349
:1030D00011F0915001C09FE743E1429FF001439FEF
:1030E000F00D1124EA5DFC4F938369E00C9489058F
:1030F000223309F46ECE0895CF92DF92EF92FF92C1
:10310000CF93DF9386E06AD7C82F87E067D7D82FA1
:10311000BCD56B017C01C13021F4D13011F40C9489
:1031200000008091200381110EC0D13009F052C0FF
:10313000D0932003C0921C03D0921D03E0921E0383
:10314000F0921F0347C0813041F5D11102C082E0E7
:1031500021C0D13009F03EC040911C0350911D03A5
:1031600060911E0370911F034C505E4F6F4F7F4F55
:103170004C155D056E057F0568F58091250390E08F
:10318000019663E070E00E947F25809325030E94F2
:10319000DC0683E0809320031DC08230A9F44091B7
:1031A0001C0350911D0360911E0370911F034E5C20
:1031B0005F4F6F4F7F4F4C155D056E057F0540F4E7
:1031C00062DC0E94DC0604C0833021F4D11102C00D
:1031D000109220038091210381110EC0C13009F0AB
:1031E0004FC0C0932103C0921803D0921903E092FC
:1031F0001A03F0921B0344C0813031F5C11102C0A3
:1032000082E01FC0C130E1F580911803909119034D
:10321000A0911A03B0911B038C509E4FAF4FBF4F2C
:103220008C159D05AE05BF0558F5809125038823B3
:1032300011F0815001C082E0809325030E94DC06DA
:1032400083E0809321031CC08230A1F48091180395
:1032500090911903A0911A03B0911B03C296A11D6E
:10326000B11D8C159D05AE05BF0540F472DD0E94B1
:10327000DC0604C0833021F4C11102C01092210386
:10328000DF91CF91FF90EF90DF90CF900895CF9393
:10329000DF93C82FD0E0CE010E94090487FD8FE79D
:1032A000282F30E0AE016EE770E083E090E0DF9120
:1032B000CF9109CACF93DF93C82FD0E0CE01C29639
:1032C0000E94090487FD8FE7282F30E0AE016CE4EF
:1032D00070E083E090E0DF91CF91F5C9CF93DF9369
:1032E00081E090E00E9409048830D1F480E0CFDFD3
:1032F00082E0CDDF83E0CBDFC0E08C2FDBDFCF5F70
:10330000CC30D9F7D0E0C0E06C2F8D2F4DDBCF5FF4
:10331000CE30D1F7DF5FD031B1F7DF91CF91089593
:1033200080E00E949B0582E00E949B0583E00E9452
:103330009B05C0E08C2F0E94AF05CF5FCC30D1F74A
:10334000D0E0C0E06C2F8D2F0E948905CF5FCE307A
:10335000C9F7DF5FD031A9F768E081E090E0DF9145
:10336000CF910C940B042F923F924F925F926F92E9
:103370007F928F929F92AF92BF92CF92DF92EF9205
:10338000FF920F931F93CF93DF9361E08DE0B8D549
:1033900062E083E3B5D562E081E3B2D562E08FE21B
:1033A000AFD562E085E3ACD562E081E2A9D562E009
:1033B00083E2A6D562E085E2A3D562E087E2A0D5EC
:1033C00062E089E29DD562E08BE29AD562E08DE20F
:1033D00097D55BD460938D0470938E0480938F0493
:1033E00090939004C8E2D3E0F12C4AE0E42E51E53A
:1033F000D52E6FE4C62E7DE4B72EE8E0AE2EF9E4BC
:103400009F2EAFE28A2EB1E47B2E13E4612E05E4F9
:10341000502E87E4482E94E2392E2AE2222E8E0185
:103420000250110932D42C81620F711D811D911D32
:1034300069877A878B879C87FE013197F0828F2D71
:1034400090E08E30910508F041C0FC01EC51FF4F37
:10345000D8018C91807F0C94B425F801808386E29A
:10346000888334C0D8018C93288230C0F8018083CF
:1034700038822CC0D8018C93488228C0F801808300
:10348000588224C0D8018C93688220C0F8018083C0
:1034900078821CC0D8018C93888218C0F801808380
:1034A000988214C0D8018C93A88210C0F801808340
:1034B000B8820CC0D8018C93C88208C0F801808300
:1034C000D88204C08260D8018C93EA82F394639618
:1034D000B0E1FB12A4CF60E087E012D560E086E0A7
:1034E0000FD526E040E052EC61E070E08EED94E014
:1034F000E8D68EED94E060D681E087D4EFDE80914F
:103500007A00887F80937A0080917A00846080932B
:103510007A0061E08AE093E00E94D10220E042E07C
:1035200060E18AE093E00E9482038AE093E00E94D7
:10353000490340E062E08AE093E00E944F0367E4C1
:1035400072E08AE093E00E94B62241E063E08AE004
:1035500093E00E944F0365E572E08AE093E0DF911B
:10356000CF911F910F91FF90EF90DF90CF90BF9080
:10357000AF909F908F907F906F905F904F903F9013
:103580002F90F4C7CF92DF92EF92FF920F931F9389
:10359000CF93DF938EED94E090D597FD06C08EED2E
:1035A00094E08BD5803F910559F58EED94E07AD566
:1035B000079754F18EED94E08ED58EED94E08BD587
:1035C0008EED94E088D5EC018EED94E084D58C01ED
:1035D0008EED94E080D57C018EED94E07CD56C017D
:1035E0008EED94E078D59601A701B801CE01DF9168
:1035F000CF911F910F91FF90EF90DF90CF9063C814
:103600008EED94E068D5C6CFDF91CF911F910F91D9
:10361000FF90EF90DF90CF900895CF92DF92EF92DE
:10362000FF920F931F93CF93DF93ACDF65DD809103
:103630002F0281110DC064E670E080E090E0DF9120
:10364000CF911F910F91FF90EF90DF90CF904CC3DF
:1036500083E3C4D49093750480937404892B59F444
:1036600080918A0490918B04019729F44FE76EE4CE
:1036700080E90E944D0E8091740490917504019729
:1036800059F480918A0490918B04892B29F44FE797
:103690006EE480E90E944D0E80917404909175044F
:1036A00090938B0480938A0481E398D4909375045B
:1036B00080937404892B59F4809188049091890433
:1036C000019729F44FE760E580E90E944D0E809153
:1036D000740490917504019759F480918804909135
:1036E0008904892B29F44FE760E580E90E944D0E9B
:1036F0008091740490917504909389048093880458
:103700008FE26CD49093750480937404892B59F4E0
:103710008091860490918704019729F44FE762E530
:1037200080E90E944D0E8091740490917504019778
:1037300059F48091860490918704892B29F44FE7EE
:1037400062E580E90E944D0E8091740490917504A9
:10375000909387048093860485E340D49093750406
:1037600080937404892B59F480918404909185048A
:10377000019729F44FE76FE380E90E944D0E809195
:10378000740490917504019759F480918404909188
:103790008504892B29F44FE76FE380E90E944D0EE1
:1037A00080917404909175049093850480938404AF
:1037B00081E214D49093750480937404892B59F496
:1037C0008091820490918304019729F44FE76FE27E
:1037D00080E90E944D0E80917404909175040197C8
:1037E00059F48091820490918304892B29F44FE746
:1037F0006FE280E90E944D0E8091740490917504EF
:10380000909383048093820483E2E8D390937504B9
:1038100080937404892B59F48091800490918104E1
:10382000019729F44FE76FE280E90E944D0E8091E5
:10383000740490917504019759F4809180049091DB
:103840008104892B29F44FE76FE280E90E944D0E35
:103850008091740490917504909381048093800406
:1038600085E2BCD39093750480937404892B59F43A
:1038700080917E0490917F04019729F44FE76FE2D5
:1038800080E90E944D0E8091740490917504019717
:1038900059F480917E0490917F04892B29F44FE79D
:1038A0006FE280E90E944D0E80917404909175043E
:1038B00090937F0480937E0487E290D39093750465
:1038C00080937404892B59F480917C0490917D0439
:1038D000019729F44FE76FE280E90E944D0E809135
:1038E000740490917504019759F480917C0490912F
:1038F0007D04892B29F44FE76FE280E90E944D0E89
:10390000809174049091750490937D0480937C045D
:1039100089E264D39093750480937404892B59F4DD
:1039200080917A0490917B04019729F44FE76FE22C
:1039300080E90E944D0E8091740490917504019766
:1039400059F480917A0490917B04892B29F44FE7F4
:103950006FE280E90E944D0E80917404909175048D
:1039600090937B0480937A048BE238D39093750410
:1039700080937404892B59F4809178049091790490
:10398000019729F44FE76FE280E90E944D0E809184
:10399000740490917504019759F480917804909182
:1039A0007904892B29F44FE76FE280E90E944D0EDC
:1039B00080917404909175049093790480937804B5
:1039C0008DE20CD39093750480937404892B59F481
:1039D0008091760490917704019729F44FE76FE284
:1039E00080E90E944D0E80917404909175040197B6
:1039F00059F48091760490917704892B29F44FE74C
:103A00006FE280E90E944D0E8091740490917504DC
:103A1000909377048093760406E213E0C0E0D0E050
:103A200033E1C32EDC2ECC9E7001CD9EF00C112410
:103A3000C7018A5D9C4F7C01FC0180818F708F30B3
:103A4000D1F040E06C2FC8010E94590FF70180812E
:103A500082958F70813079F440E06C2FC8010E940C
:103A6000590F40E06C2FC8010E94590F40E06C2FA5
:103A7000C8010E94590FED2DE770F0E0EF50FD4FA7
:103A800020818D2D887F90E0820F911DC89EA0011E
:103A9000C99E500D11244A5D5C4F6D2DC8010E94D6
:103AA000851221960D5E1F4FC031D10509F0BACFA6
:103AB000EAE0F2E02FEF3FEF8FEF9FEF219331939A
:103AC00042E0EA31F407C1F790931B0280931A0297
:103AD00090931D0280931C0290931F0280931E02FC
:103AE0009093210280932002DF91CF911F910F913B
:103AF000FF90EF90DF90CF9008951F920F920FB636
:103B00000F9211240BB60F922F933F934F935F9315
:103B10006F937F938F939F93AF93BF93EF93FF9395
:103B2000E091D304F091D404309709F451C0868D0C
:103B3000A685B785958581FF04C08C91892329F4DA
:103B400047C08C91892309F043C0A389B4899C9113
:103B50008589809589238C93868997890197F1F7C8
:103B6000208D318DA685B785758558E040E0C90167
:103B70000197F1F7842F90E095958795482F6C91E8
:103B8000672309F04068515091F7868D81FD40957B
:103B90008091920490E001968F739927209191046F
:103BA000281749F0A0919204B0E0AD56BB4F4C935A
:103BB0008093920403C0868D8160868F828D938D61
:103BC0000197F1F7A389B4898C919589892B8C93FE
:103BD000FF91EF91BF91AF919F918F917F916F91E5
:103BE0005F914F913F912F910F900BBE0F900FBEA1
:103BF0000F901F9018951F920F920FB60F921124DD
:103C00002F933F938F939F93AF93BF938091D6044D
:103C10009091D704A091D804B091D9043091D504E3
:103C200023E0230F2D3720F40196A11DB11D05C0FF
:103C300026E8230F0296A11DB11D2093D504809381
:103C4000D6049093D704A093D804B093D90480915C
:103C5000DA049091DB04A091DC04B091DD040196BC
:103C6000A11DB11D8093DA049093DB04A093DC04C2
:103C7000B093DD04BF91AF919F918F913F912F91B0
:103C80000F900FBE0F901F9018952FB7F89460916A
:103C9000D6047091D7048091D8049091D9042FBF95
:103CA00008953FB7F8948091DA049091DB04A091D5
:103CB000DC04B091DD0426B5A89B05C02F3F19F0A8
:103CC0000196A11DB11D3FBF6627782F892F9A2F1E
:103CD000620F711D811D911D42E0660F771F881FC5
:103CE000991F4A95D1F70895CF92DF92EF92FF92F4
:103CF000CF93DF936B017C01D4DFEB01C114D104BE
:103D0000E104F10479F0DFD4CCDF6C1B7D0B683E5D
:103D10007340A0F381E0C81AD108E108F108C85146
:103D2000DC4FECCFDF91CF91FF90EF90DF90CF9001
:103D30000895019739F0880F991F880F991F0297EE
:103D40000197F1F70895789484B5826084BD84B5B5
:103D5000816084BD85B5826085BD85B5816085BD86
:103D6000EEE6F0E0808181608083E1E8F0E010829F
:103D7000808182608083808181608083E0E8F0E0E0
:103D8000808181608083E1EBF0E0808184608083CA
:103D9000E0EBF0E0808181608083E1E9F0E0808108
:103DA00082608083808181608083E0E9F0E08081AF
:103DB00081608083E1EAF0E080818260808380819D
:103DC00081608083E0EAF0E0808181608083E1E2CD
:103DD000F1E0808182608083808181608083E0E285
:103DE000F1E0808181608083EAE7F0E08081846097
:103DF00080838081826080838081816080838081F4
:103E0000806880831092C1000895809330020895E5
:103E1000863308F0865320917B00982F9870277F77
:103E2000922B90937B0087702091300290E4299F21
:103E300090011124822B80937C0080917A00806411
:103E400080937A0080917A0086FDFCCF8091780083
:103E50002091790090E0922B089590E0FC01319739
:103E6000E231F10508F04BC0EE50FF4F7DC6809166
:103E700080008F7703C0809180008F7D80938000C9
:103E8000089580918000877FF9CF84B58F7702C035
:103E900084B58F7D84BD08958091B0008F7703C075
:103EA0008091B0008F7D8093B00008958091900044
:103EB0008F7707C0809190008F7D03C08091900024
:103EC000877F8093900008958091A0008F7707C02E
:103ED0008091A0008F7D03C08091A000877F809398
:103EE000A0000895809120018F7707C08091200164
:103EF0008F7D03C080912001877F809320010895EA
:103F0000CF93DF9390E0FC01E650FC4F2491FC013D
:103F1000E05CFB4F8491882349F190E0880F991F62
:103F2000FC01E654FB4FA591B49180569B4FFC01D8
:103F3000C591D4919FB7611108C0F8948C912095D8
:103F400082238C93888182230AC0623051F4F894D2
:103F50008C91322F309583238C938881822B888398
:103F600004C0F8948C91822B8C939FBFDF91CF91EA
:103F700008950F931F93CF93DF931F92CDB7DEB7B2
:103F8000282F30E0F901EC54FC4F8491F901E65000
:103F9000FC4F1491F901E05CFB4F04910023C1F048
:103FA000882319F0698359DF6981E02FF0E0EE0F73
:103FB000FF1FE056FB4FA591B4919FB7F8948C91E9
:103FC000611103C01095812301C0812B8C939FBF89
:103FD0000F90DF91CF911F910F910895CF93DF93B1
:103FE000282F30E0F901EC54FC4F8491F901E650A0
:103FF000FC4FD491F901E05CFB4FC491CC2389F0D4
:1040000081112BDFEC2FF0E0EE0FFF1FEA57FB4F83
:10401000A591B4912C912D2381E090E021F480E0D2
:1040200002C080E090E0DF91CF910895BF92CF92DF
:10403000DF92EF92FF920F931F93CF93DF93C82EDF
:10404000D62EB42EC7E0D0E0022F10E087E0E82E95
:10405000F12CB1100AC0F701EC1BFD0BB80102C036
:1040600075956795EA95E2F707C0B8010C2E02C076
:10407000759567950A94E2F7617077278C2D79DF43
:1040800061E08D2D76DF60E08D2D73DF219708F7DD
:10409000DF91CF911F910F91FF90EF90DF90CF9024
:1040A000BF900895FC01818D228D90E0805C9F4F30
:1040B000821B91098F7399270895FC01918D828D40
:1040C000981731F0828DE80FF11D858D90E00895ED
:1040D0008FEF9FEF0895FC01918D828D981761F00D
:1040E000828DDF01A80FB11D5D968C91928D9F5F2F
:1040F0009F73928F90E008958FEF9FEF089580E275
:1041000092E2892B39F080E090E0892B19F098D168
:10411000811125C080E090E0892B41F080E090E0A3
:10412000892B21F00E94000081111CC080E090E0EA
:10413000892B41F080E090E0892B21F00E94000063
:10414000811113C080E090E0892BA1F080E090E025
:10415000892B81F00E94000081110AC008950E94FD
:104160000000D8CF0E940000E1CF0E940000EACFFB
:104170000C9400000895FC01848DDF01A80FB11D8F
:10418000A35ABF4F2C91848D90E001968F7399278D
:10419000848FA689B7892C93A089B1898C9180647A
:1041A0008C93938D848D981306C00288F389E02D3B
:1041B00080818F7D80830895CF93DF93EC01888D7C
:1041C0008823C1F0EA89FB89808185FD05C0A88923
:1041D000B9898C9186FD0EC00FB607FCF5CF8081A2
:1041E00085FFF2CFA889B9898C9185FFEDCFCE01EB
:1041F000C2DFE8CFDF91CF910895CF92DF92FF9297
:104200000F931F93CF93DF931F92CDB7DEB76C014F
:10421000DC015B969C915B975C968C915C97981304
:1042200007C05096ED91FC915197808185FD31C07A
:10423000F601038D10E00F5F1F4F0F731127F02E53
:10424000F601848DF81210C00FB607FCF9CFD60125
:104250005096ED91FC915197808185FFF1CFC60179
:10426000698389DF6981ECCF838DE80FF11DE35A03
:10427000FF4F6083D6015B960C935B975296ED914E
:10428000FC91539780818062808381E058968C9363
:104290000DC0D6015696ED91FC91579760835096CC
:1042A000ED91FC91519780818064808381E090E062
:1042B0000F90DF91CF911F910F91FF90DF90CF90E2
:1042C0000895BF92CF92DF92EF92FF92CF93DF9348
:1042D000EC016A017B01B22EE889F98982E08083D2
:1042E000411581EE58076105710599F060E079E0AC
:1042F0008DE390E0A701960115D4215031094109C1
:1043000051095695479537952795211580E138072E
:1043100090F0E889F989108260E874E88EE190E015
:10432000A7019601FFD32150310941095109569542
:10433000479537952795EC85FD853083EE85FF857C
:104340002083188EEC89FD89B082EA89FB898081FF
:1043500080618083EA89FB89808188608083EA8923
:10436000FB89808180688083EA89FB8980818F7DD9
:104370008083DF91CF91FF90EF90DF90CF90BF903F
:1043800008951F920F920FB60F9211240BB60F9241
:104390002F938F939F93EF93FF93E091EE04F0910F
:1043A000EF048081E091F404F091F50482FD12C0E5
:1043B00090818091F7048F5F8F732091F8048217AA
:1043C00051F0E091F704F0E0E252FB4F958F8093BB
:1043D000F70401C08081FF91EF919F918F912F9100
:1043E0000F900BBE0F900FBE0F901F9018951F924D
:1043F0000F920FB60F9211240BB60F922F933F938B
:104400004F935F936F937F938F939F93AF93BF93DC
:10441000EF93FF938EED94E0AEDEFF91EF91BF91AD
:10442000AF919F918F917F916F915F914F913F914C
:104430002F910F900BBE0F900FBE0F901F901895ED
:104440008EED94E02FDE21E0892B09F420E0822F0D
:1044500008951092E1041092E00488EE93E0A0E049
:10446000B0E08093E2049093E304A093E404B0935B
:10447000E5048DEF92E09093DF048093DE0485ECF9
:1044800090E09093EB048093EA0484EC90E09093A6
:10449000ED048093EC0480EC90E09093EF04809323
:1044A000EE0481EC90E09093F1048093F00482ECB0
:1044B00090E09093F3048093F20486EC90E0909364
:1044C000F5048093F4041092F7041092F80410920B
:1044D000F9041092FA040895089535DCFDDF0E9476
:1044E000B319CFE7D0E299D82097E9F308DEFBCFE4
:1044F000CF92DF92EF92FF920F931F93CF93DF93B0
:104500006C017A01EB01E60EF71E00E010E0CE151B
:10451000DF0561F06991D601ED91FC910190F08188
:10452000E02DC6011995080F191FF1CFC801DF91C1
:10453000CF911F910F91FF90EF90DF90CF90089552
:104540006115710581F0DB010D900020E9F7AD01E7
:1045500041505109461B570BDC01ED91FC91028043
:10456000F381E02D199480E090E00895E9CFDC011B
:10457000ED91FC910190F081E02D19948F929F9222
:10458000AF92BF92CF92DF92EF92FF920F931F9361
:10459000CF93DF93CDB7DEB7A1970FB6F894DEBF08
:1045A0000FBECDBF7C01C42EE52FCB01D22E19A2A8
:1045B00021E02D1510F02AE0D22E8E010F5D1F4F45
:1045C0008D2C912CA12CB12C6C2D7E2FA50194014A
:1045D000A9D28C2DD29E80191124015011098A3044
:1045E00014F4805D01C0895CF801808321153105D8
:1045F0004105510521F0C22EE32FCA01E5CFB801D4
:10460000C7019EDFA1960FB6F894DEBF0FBECDBFE7
:10461000DF91CF911F910F91FF90EF90DF90CF909E
:10462000BF90AF909F908F900895CF92DF92EF92BE
:10463000FF920F931F93CF93DF93EC016A017B01ED
:104640002115310579F4E881F9810190F081E02D9F
:10465000642FDF91CF911F910F91FF90EF90DF902A
:10466000CF9019942A303105D9F477FF18C06DE244
:104670007EDF8C0144275527BA014C195D096E096C
:104680007F092AE0CE017ADF800F911FDF91CF9161
:104690001F910F91FF90EF90DF90CF9008952AE047
:1046A000B701A601CE01DF91CF911F910F91FF902D
:1046B000EF90DF90CF9062CF9A01AB01662757FD54
:1046C0006095762FB2CF08955058BB27AA270ED0F9
:1046D00075C166D130F06BD120F031F49F3F11F4F9
:1046E0001EF45BC10EF4E095E7FB51C1E92F77D1D1
:1046F00080F3BA17620773078407950718F071F4FF
:104700009EF58FC10EF4E0950B2EBA2FA02D0B0154
:10471000B90190010C01CA01A0011124FF27591B06
:1047200099F0593F50F4503E68F11A16F040A22F0C
:10473000232F342F4427585FF3CF4695379527957D
:10474000A795F0405395C9F77EF41F16BA0B620B7C
:10475000730B840BBAF09150A1F0FF0FBB1F661FC3
:10476000771F881FC2F70EC0BA0F621F731F841F06
:1047700048F4879577956795B795F7959E3F08F02C
:10478000B3CF9395880F08F09927EE0F97958795EB
:104790000895D9D008F481E008950CD00FC107D155
:1047A00040F0FED030F021F45F3F19F0F0C051111D
:1047B00039C1F3C014D198F39923C9F35523B1F348
:1047C000951B550BBB27AA2762177307840738F080
:1047D0009F5F5F4F220F331F441FAA1FA9F333D0DF
:1047E0000E2E3AF0E0E830D091505040E695001C93
:1047F000CAF729D0FE2F27D0660F771F881FBB1F4F
:10480000261737074807AB07B0E809F0BB0B802D28
:10481000BF01FF2793585F4F2AF09E3F510568F074
:10482000B6C000C15F3FECF3983EDCF38695779508
:104830006795B795F7959F5FC9F7880F911D969576
:10484000879597F90895E1E0660F771F881FBB1FD2
:10485000621773078407BA0720F0621B730B840B7F
:10486000BA0BEE1F88F7E095089504D06894B11153
:10487000D9C00895BCD088F09F5790F0B92F9927E0
:10488000B751A0F0D1F0660F771F881F991F1AF05B
:10489000BA95C9F712C0B13081F0C3D0B1E0089524
:1048A000C0C0672F782F8827B85F39F0B93FCCF3A5
:1048B000869577956795B395D9F73EF49095809551
:1048C000709561957F4F8F4F9F4F0895E89409C071
:1048D00097FB3EF490958095709561957F4F8F4F33
:1048E0009F4F9923A9F0F92F96E9BB279395F69549
:1048F000879577956795B795F111F8CFFAF4BB0FC7
:1049000011F460FF1BC06F5F7F4F8F4F9F4F16C02A
:10491000882311F096E911C0772321F09EE8872FB4
:10492000762F05C0662371F096E8862F70E060E070
:104930002AF09A95660F771F881FDAF7880F9695E9
:10494000879597F90895990F0008550FAA0BE0E88D
:10495000FEEF16161706E807F907C0F01216130641
:10496000E407F50798F0621B730B840B950B39F481
:104970000A2661F0232B242B252B21F408950A26E7
:1049800009F4A140A6958FEF811D811D089597F927
:104990009F6780E870E060E008959FEF80EC0895E5
:1049A00000240A941616170618060906089500240E
:1049B0000A9412161306140605060895092E039488
:1049C000000C11F4882352F0BB0F40F4BF2B11F4FC
:1049D00060FF04C06F5F7F4F8F4F9F4F089557FD5B
:1049E0009058440F551F59F05F3F71F04795880F5D
:1049F00097FB991F61F09F3F79F0879508951216F4
:104A000013061406551FF2CF4695F1DF08C016169F
:104A100017061806991FF1CF869571056105089450
:104A20000895E894BB2766277727CB0197F9089567
:104A30008ADF08F48FEF08950BD0C0CFB1DF28F0E4
:104A4000B6DF18F0952309F0A2CFA7CF1124EACF43
:104A5000C6DFA0F3959FD1F3950F50E0551F629FDD
:104A6000F001729FBB27F00DB11D639FAA27F00DC7
:104A7000B11DAA1F649F6627B00DA11D661F829FEE
:104A80002227B00DA11D621F739FB00DA11D621FD3
:104A9000839FA00D611D221F749F3327A00D611DF0
:104AA000231F849F600D211D822F762F6A2F1124D2
:104AB0009F5750408AF0E1F088234AF0EE0FFF1F25
:104AC000BB1F661F771F881F91505040A9F79E3F5C
:104AD000510570F05CCFA6CF5F3FECF3983EDCF35E
:104AE000869577956795B795F795E7959F5FC1F799
:104AF000FE2B880F911D9695879597F9089597FB42
:104B0000072E16F4009406D077FD08D03DD007FCA0
:104B100005D03EF4909581959F4F089570956195CD
:104B20007F4F0895A1E21A2EAA1BBB1BFD010DC0E9
:104B3000AA1FBB1FEE1FFF1FA217B307E407F5074D
:104B400020F0A21BB30BE40BF50B661F771F881F29
:104B5000991F1A9469F760957095809590959B01BF
:104B6000AC01BD01CF010895EE0FFF1F0590F49138
:104B7000E02D1994B7FF1CC01BD0821B930B089526
:104B80000790F691E02D1994AA1BBB1B51E107C0B9
:104B9000AA1FBB1FA617B70710F0A61BB70B881FCD
:104BA000991F5A95A9F780959095BC01CD0108955C
:104BB00009D0A59F900DB49F900DA49F800D911DCD
:104BC00011240895A29FB001B39FC001A39F700D4F
:104BD000811D1124911DB29F700D811D1124911D05
:104BE0000895F999FECF92BD81BDF89A992780B5B5
:104BF0000895262FF999FECF1FBA92BD81BD20BD21
:104C00000FB6F894FA9AF99A0FBE01960895F8949F
:024C1000FFCFD4
:104C120000007B058000FFFF0004FFFF0000000092
:104C220000000000000000000000FFFF0000000084
:104C320000007F7F3B303024180C14325064020293
:104C42000100004000140054000000000006047837
:104C5200222030303020006D6963726F4D656761CC
:104C62004472756D0062792045636368696D6F6E89
:104C72000000000000A470034214AE3942AE475F48
:104C820042000080420A579042D723A3428F42BE7D
:104C9200420000FE4285EB1140D7A3C0407B147254
:104CA200419A99084200007E4214AEB94252B8DFDE
:104CB20042A4F0F142856BFF42000000000A57A7B0
:104CC20042C375C442E17AD5425C8FE142A4F0EA64
:104CD200429A99F2425C0FF94214AEFE42B81E1596
:104CE20040666676403333CB4014AE2741713D8A2D
:104CF200410000E441C3F53B42A4F09A42E17AFF4D
:104D020042030201000607040500000000FD2078AE
:0A4D12002252206B205D20DC2000FF
:00000001FF
