:100000000C945D000C9485000C9485000C94850084
:100010000C9485000C9485000C9485000C9485004C
:100020000C9485000C9485000C9485000C9485003C
:100030000C9485000C9485000C9485000C9485002C
:100040000C94AD020C9485000C9473020C9438024D
:100050000C9485000C9485000C9485000C9485000C
:100060000C9485000C94850000000007000201003C
:100070000003040600000000000000000000000073
:10008000250028002B0000000000240027002A0083
:10009000040404040404040402020202020203032E
:1000A0000303030301020408102040800102040836
:1000B0001020010204081020F70211241FBECFEF08
:1000C000D8E0DEBFCDBF11E0A0E0B1E0E4EAF7E0A8
:1000D00002C005900D92AE31B107D9F721E0AEE133
:1000E000B1E001C01D92A13DB207E1F710E0CDE5FE
:1000F000D0E004C02197FE010E94CA03CC35D1078D
:10010000C9F70E9432030C94C7030C940000E1EB82
:10011000F0E02491EDE9F0E08491882399F090E0FB
:10012000880F991FFC01EA57FF4FA591B491FC017C
:10013000E458FF4F859194918FB7F894EC91E22B9E
:10014000EC938FBF0895E5E7F0E09491E1EBF0E0E8
:100150002491EDE9F0E0E491EE2309F43CC0992309
:1001600039F1933091F038F49130A9F0923001F5E3
:1001700094B59F7D12C0963091F09730A1F09430E5
:10018000B9F4909180009F7D03C0909180009F778B
:10019000909380000DC094B59F7794BD09C0909155
:1001A000B0009F7703C09091B0009F7D9093B00006
:1001B000F0E0EE0FFF1FE458FF4FA591B4919FB7F9
:1001C000F894811104C08C912095282302C0EC91F1
:1001D0002E2B2C939FBF089508950F931F93CF93B9
:1001E000DF93FC01A685B7858D01005C1F4FE801F8
:1001F0008881998101968F739927AD014E5B5F4F7E
:10020000EA012881398128173907D1F3E8012881CB
:100210003981A20FB31F6C93A685B785A05CBF4F31
:1002200011969C938E93A689B7892C9181E090E0DA
:10023000078C02C0880F991F0A94E2F7822B8C93D7
:1002400081E081A30488F589E02D8081806480832A
:1002500081E090E0DF91CF911F910F910895FC0113
:1002600081A1882329F0A489B5898C9186FFFBCFD1
:1002700011A20895FC01A485B585FD01E05CFF4F46
:10028000208131813296808191812817390779F058
:1002900080819181A80FB91F8C91208131812F5FBE
:1002A0003F4F2F7333273183208390E008958FEFE2
:1002B0009FEF0895DC011C96ED91FC911D97DF01E5
:1002C000A05CBF4F2D913C91119712968D919C91FE
:1002D00011972817390739F08D919C91E80FF91F74
:1002E000808190E008958FEF9FEF0895FC012485B1
:1002F0003585F901E05CFF4F808191813296208144
:100300003181821B930B8F73992708958FEA91E0B7
:100310000C947601CF92DF92EF92FF920F931F938E
:10032000CF93DF936C01EB017B01E40EF51E00E03F
:1003300010E0CE15DF0561F06991D601ED91FC91D9
:100340000190F081E02DC6010995080F191FF1CF2A
:10035000C801DF91CF911F910F91FF90EF90DF9037
:10036000CF900895789484B5826084BD84B581600F
:1003700084BD85B5826085BD85B5816085BDEEE6AD
:10038000F0E0808181608083E1E8F0E0108280818C
:1003900082608083808181608083E0E8F0E08081FA
:1003A00081608083E1EBF0E0808184608083E0EB1A
:1003B000F0E0808181608083EAE7F0E08081846002
:1003C000808380818260808380818160808380815E
:1003D000806880831092C10008953FB7F89480919F
:1003E000230190912401A0912501B091260126B509
:1003F000A89B05C02F3F19F00196A11DB11D3FBF5D
:10040000BA2FA92F982F8827820F911DA11DB11DEA
:10041000BC01CD0142E0660F771F881F991F4A95E6
:10042000D1F70895CF92DF92EF92FF92CF93DF93AF
:100430006B017C010E94ED01EB01C114D104E104C8
:10044000F10479F00E94ED016C1B7D0B683E734056
:10045000A0F381E0C81AD108E108F108C851DC4FC7
:10046000ECCFDF91CF91FF90EF90DF90CF90089588
:100470001F920F920FB60F9211242F933F938F93D9
:100480009F93EF93FF9320916701309168018091D2
:10049000690190916A012817390731F48091C100F0
:1004A0008F7D8093C10014C0E0916901F0916A01D1
:1004B000E95DFE4F20818091690190916A0101966A
:1004C0008F73992790936A01809369012093C600E6
:1004D000FF91EF919F918F913F912F910F900FBEC0
:1004E0000F901F9018951F920F920FB60F92112424
:1004F0002F934F935F938F939F93EF93FF938091ED
:10050000C00082FD1CC02091C6008091AB0190917B
:10051000AC014091AD015091AE0101968F739927C6
:100520004817590771F0E091AB01F091AC01E55922
:10053000FE4F20839093AC018093AB0102C0809169
:10054000C600FF91EF919F918F915F914F912F91F5
:100550000F900FBE0F901F9018951F920F920FB61D
:100560000F9211242F933F938F939F93AF93BF9339
:1005700080911F0190912001A0912101B091220151
:1005800030911E0123E0230F2D3720F40196A11D89
:10059000B11D05C026E8230F0296A11DB11D2093B1
:1005A0001E0180931F0190932001A0932101B0931D
:1005B00022018091230190912401A0912501B09105
:1005C00026010196A11DB11D809323019093240162
:1005D000A0932501B0932601BF91AF919F918F9178
:1005E0003F912F910F900FBE0F901F901895EFEA3B
:1005F000F1E01382128288EE93E0A0E0B0E0848301
:100600009583A683B78384E091E0918380838BE612
:1006100091E09587848787E291E09787868785ECCC
:1006200090E0918B808B84EC90E0938B828B80ECBC
:1006300090E0958B848B81EC90E0978B868B82EC9D
:1006400090E0918F808F86EC90E0938F828F84E092
:10065000848F83E0858F87E0868F85E0878F81E0B8
:1006600080A308950E94B2010E948700E091C30117
:10067000F091C40181E090E09C010090CF0102C0A4
:10068000220F331F0A94E2F72083E091BF01F0911B
:10069000C0011082E091C101F091C2012FEC2083D2
:1006A0001092D001E091C501F091C60140819C01FA
:1006B0000090CB0102C0220F331F0A94E2F7242BD3
:1006C0002083E091C501F091C60140819C0100901A
:1006D000CC0102C0220F331F0A94E2F7242B20839F
:1006E000E091C501F091C60140819C010090CD01CF
:1006F00002C0220F331F0A94E2F7242B2083E091DB
:10070000C501F091C60120810090CE0102C0880F82
:10071000991F0A94E2F780958223808381E00E94EA
:10072000A3006AEF70E080E090E00E94120280E097
:100730000E94A30064E670E080E090E00E94120254
:10074000E091AF01F091B0010280F381E02D4DE026
:1007500050E060E171E08FEA91E00995E091AF012E
:10076000F091B0010190F081E02D6DE08FEA91E011
:100770000995E091AF01F091B0010190F081E02D79
:100780006AE08FEA91E009950E948601C7CFF8944C
:100790000C94D003EE0FFF1F0590F491E02D099407
:0407A000F894FFCFFB
:1007A40000000000ED008A0176013A015A012F0190
:0E07B40048656C6C6F20776F726C64212100B9
:00000001FF
